:020000040800F2
:100000007009002045010008D91C0008B91A000831
:10001000D51C0008210E0008B72A000800000000C7
:10002000000000000000000000000000B9240008EB
:1000300091130008000000002B2000081F26000874
:100040005F0100085F0100085F0100085F01000810
:100050005F0100085F010008AD13000825140008C7
:10006000A51400085F0100085F0100085F01000897
:100070005F0100085F0100085F0100085F010008E0
:100080005F0100085F0100085F0100085F010008D0
:100090005F0100085F0100085F0100085F010008C0
:1000A0005F0100085F0100085F0100085F010008B0
:1000B000892600085F0100085F0100085F01000851
:1000C0005F0100085F0100085F0100085F01000890
:1000D0005F0100081D2800085F0100085F0100089B
:1000E0005F0100085F0100085F0100085F01000870
:1000F0005F0100085F0100085F0100085F01000860
:100100005F0100085F010008C52600085F010008C4
:100110005F0100085F0100085F0100085F0100083F
:100120005F0100085F0100085F0100085F0100082F
:10013000DFF80CD000F0CCFB00480047A9340008E1
:10014000700900200648804706480047FEE7FEE7A2
:10015000FEE7FEE7FEE7FEE7FEE7FEE7FEE7FEE777
:10016000292600083101000800487047884000082F
:1001700010B50446FFF7F8FF0068005D00F00100CD
:1001800010BD421C10F8011B0029FBD1801A7047DA
:10019000F0B480EA0102D40F4200B2EB410F02D268
:1001A0000246084611464A0042D0C30DDDB2C1F3F3
:1001B000C752AD1A202D35DAC1F3160141F4000201
:1001C00004B15242C5F1200602FA06F12A41104458
:1001D000B3EBD05F23D0C4B1012DA0EBC35009DC39
:1001E000F0BC4FF0004202EAC352DBB200F500005F
:1001F00000F087B9400000F1807000EBC350A0F11F
:10020000807040EAD170490009E0490841EAC071B4
:10021000A0EBC35000F50000400800EBC350F0BC59
:1002200000F066B96142012202EB4101001BF6E7D2
:10023000F0BC704781F00041AAE780F00040A7E7DA
:1002400080EA010210B502F00043400022D04A00CB
:100250001FD0010E01EB1261C0F35600C2F356022B
:1002600040F4000042F40002A0FB022000047F39A9
:10027000140400D0401C50EA124001D44000491E32
:10028000C2B20C0604EBD010401C4008802A02D0F9
:1002900003E0002010BD20F00100002900DA00205A
:1002A000184310BD30B480EA010202F0004530F07E
:1002B000004221F0004013D090B1C30DD40DC2F321
:1002C0001601C0F31600E41A41F4000140F40002E4
:1002D0007D34914201D3641C00E04900002C02DA15
:1002E00030BC002070474FF400000023914201D33E
:1002F000891A034340084FEA4101F7D151B19142B5
:1003000002D14FF0004105E002D24FF0010101E0BF
:100310006FF0010103EBC450284430BC00F0E8B892
:1003200096230022114600F0ECB820F00040C10DE9
:10033000C0F3160040F400007F2901DA0020704766
:10034000962903DCC1F19601C84070479639884070
:10035000704700F0004230F000400AD0C10D01F5B6
:100360006071C0F3160042EA0151C2084007114310
:10037000704700200146704701F0004330B421F07F
:10038000004150EA010206D00A0DA2F56072C1F3E5
:100390001301002A02DC30BC00207047440F44EAFD
:1003A000C104C100E01830BC00EBC25000F0A0B89E
:1003B000002801DBC0F10040002901DBC1F1004150
:1003C0008142704730B50B460146002020220124AF
:1003D00009E021FA02F59D4205D303FA02F5491B13
:1003E00004FA02F52844151EA2F10102F1DC30BD29
:1003F0002DE9F05F0546002092469B46884606465A
:10040000814640241BE0284641464746224600F0EC
:1004100080FA53465A46C01A914110D311461846E5
:10042000224600F067FA2D1A67EB01084F46224674
:100430000120002100F05EFA17EB00094E41201E5A
:10044000A4F10104DFDC484631462A464346BDE8B4
:10045000F09F00000FB4002300B589B00CA90091F3
:100460000B996FF00042CB601E4B06931E4B079317
:100470000423CDE901321D4A089202466B46002052
:1004800000F0EAFA09B05DF814FB70B586B00646D4
:100490004FF0FF300091CDE90101002015460C46D8
:1004A00004903246694604A8FFF7D4FF0346049837
:1004B000211825B108B10A4600E022462A6000282A
:1004C0000DD0002B02DD0098884208D0081B009454
:1004D000CDE901043246694604A8FFF7BBFF06B028
:1004E00070BD0000910C0008AF0C000871010008FD
:1004F0000029A8BF7047401C490008BF20F0010038
:10050000704710B4B0FA80FC00FA0CF050EA010415
:1005100004BF10BC704749B1CCF1200421FA04F4A7
:1005200011FA0CF118BF012121430843A3EB0C0180
:10053000CB1D4FEA00614FEA102042BF002010BCE3
:10054000704700EBC35010440029A4BF10BC704793
:10055000401C490008BF20F0010010BC70472DE985
:10056000FE4F804681EA0300C00F0C46009021F048
:10057000004123F00045B8EB0200A94105D24046F6
:10058000214690461C460B46024623F0004010438D
:1005900047D0270DC7F30A00C3F30A510290401A4F
:1005A000019040286BDAC3F3130040F4801B0098DD
:1005B000924620B10023D2EB030A63EB0B0B0198A8
:1005C0005946C0F14002504600F094F906460D46E7
:1005D00050465946019A00F0ACF910EB0800614111
:1005E000002487EA115284EAE7731A4340D0009A44
:1005F00062B3019A012A4FEA075215DC001B61EB36
:1006000002014FF0004202EA0752CDE90042001C0D
:1006100041F5801132462B4600F069FB03B0BDE87E
:10062000F08F40462146F9E7001B61EB0201001CF8
:1006300041F5801300185B412018A2F5001747EB25
:10064000030140EAD570B6196D4111E06D084FEA1B
:10065000360645EAC0754FEA0752001B61EB0201FE
:10066000001C41F5801149084FEA30000019514142
:1006700032462B4603B0BDE8F04F00F029BB00988E
:10068000012240000023D0EB020263EBE0730098EC
:1006900021464FEAE074B8EB000061EB0401E9E7A2
:1006A00083F000435BE781F0004158E72DE9FE4FFE
:1006B00081EA030404F0004421F0004100944FF06B
:1006C000000B23F0004350EA01045ED052EA030419
:1006D0005BD0C3F30A54C1F30A552C44A4F2F3349B
:1006E0000194A0FB0254C1F3130141F48011C3F340
:1006F000130343F4801301FB024400FB034E840AFE
:10070000970A44EA815447EA8357A4FB0768029595
:100710008D0A05FB07854FEA932C04FB0C54270533
:10072000029D4FEA065847EA1637B5EB08056EEB0F
:10073000070C870E920E47EA811742EA8312A7FB45
:100740000201B6EB0B0164EB00042B0D43EA0C3302
:100750005E1844EB1C50DA465146E7FB0201C5F334
:1007600013044FEA0B3343EA14534FEA0432019C5B
:1007700043EA0603A4F10C040294009CCDE900B402
:1007800000F0B5FA03B0BDE8F08F00200146F9E7AC
:100790002DE9F04D81EA030404F0004B21F00045FF
:1007A00014464FF0000A23F0004150EA050220D021
:1007B00054EA01021DD0C5F30A570246C5F31303DC
:1007C000C1F31300C1F30A5640F4801543F48013BB
:1007D000A7EB0608101BD64608F2FD3873EB0500A0
:1007E00002D308F1010801E092185B41B8F1000F53
:1007F00003DA00200146BDE8F08D00204FF480119F
:10080000064684460EE0171B73EB050705D3121B43
:1008100063EB050306434CEA010C49084FEA30003C
:1008200092185B4150EA0107EDD152EA030012D061
:1008300082EA040083EA0501084305D0101BAB419E
:1008400006D20122002306E000224FF0004302E01E
:100850006FF0010253101AEB06004CEB085110EB3D
:100860000A0041EB0B01BDE8F04D00F031BAC1F3D5
:100870000A52C1F3130140F2FF3341F480119A424E
:1008800002DA00200146704740F233439A42A2F256
:10089000334202DC524200F03CB800F02BB80000BA
:1008A00030B5041E71F1000404DB4FF000444042F7
:1008B00064EB0101141E73F1000405DB1C464FF0CC
:1008C0000043524263EB0403994208BF904230BD9B
:1008D000064C074D06E0E06840F0010394E807008D
:1008E00098471034AC42F6D3FFF726FC8C40000842
:1008F000AC400008202A04DB203A00FA02F1002074
:1009000070479140C2F1200320FA03F3194390404D
:100910007047202A04DB203A21FA02F000217047B8
:1009200021FA02F3D040C2F1200291400843194657
:100930007047202A06DBCB17203A41FA02F043EA3F
:10094000E07306E041FA02F3D040C2F12002914088
:1009500008431946704700002DE9FF4F087881B021
:100960009946FF2805D0491C2D2804D000240023D7
:1009700008E000230BE00124F9E703EB830300EB1D
:100980004303491C0878FF28F7D104B15B420020DB
:100990000090147801462D2C01D02B2C04D1521C30
:1009A0002D2C12D00024009400251678FF2E0ED096
:1009B0000A24A0FB04C801FB0481002700FB0711E7
:1009C000521C16EB0C006941EFE70124EBE7994458
:1009D00050EA01020ED00024AA4D2646DFF8A88274
:1009E00000F0D3F982468B46B9F1000009DAC9F16B
:1009F00000071BE001980021C0E9001105B0BDE827
:100A0000F08F074612E0F80707D022462B46304603
:100A10004146FFF74BFE0646884622462B461046C7
:100A20001946FFF743FE04460D467F10002FEAD11A
:100A3000B9F1000F324643465046594602DAFFF7F5
:100A4000A7FE01E0FFF732FE009A0AB181F00041F3
:100A5000019AC2E90001D1E72DE9FF4F1F468DB091
:100A6000D7E901464FF0FF382E2045464FF00009E8
:100A70000B90B9696D1C0E988847396A8246884781
:100A80000028F6D1BAF1FF3F0AD024F4D064002E3A
:100A900011DDBAF12B0F08D0BAF12D0F0BD102E006
:100AA000404611B0ABE744F48064B9696D1C0E9800
:100AB00088478246761E6946600501D52D2000E0F4
:100AC0002B208DF8000001F1010B0DF1200809E049
:100AD000B9696D1C0E98884782460F9844F40074DB
:100AE000761E0560002E02DDBAF1300FF0D00B99B2
:100AF0008A453ED144F0800406E00F99681CA9F1B4
:100B0000010944F400740860B9696D1C761E0E98E2
:100B1000884782463028F0D02BE00B998A4505D1D2
:100B2000200603D444F08004761E18E0504602F0FC
:100B3000EFF808B30DF11301761E44F400748B45F1
:100B400008D2AAF130000BF8010B200607D5A9F155
:100B5000010003E0200602D409F101008146A0054E
:100B600002D50F99681C0860B9696D1C0E988847FA
:100B70008246002ED1DC53E0002E51DDBAF1650F24
:100B800002D0BAF1450F4BD1A00549D5B9696D1C0A
:100B900024F44074761E0E9888478246002E0CDDA1
:100BA0002B2804D0BAF12D0F07D144F48074B96911
:100BB0006D1C0E9888478246761EE00501D52D21D2
:100BC00000E02B2108F8011BCDF82C8021E00DF16D
:100BD0002901761E44F4007488450CD2AAF1300035
:100BE00010F0FF0088F8000002D10B99884509D960
:100BF00008F1010806E0E00501D5244801E042F2D1
:100C00000F708146B9696D1C0E98884782460F980F
:100C10000560002E04DD504602F07AF80028D6D197
:100C2000F9690E988847FF208BF8000088F80000CB
:100C30000020069007904B466A4608A906A8FFF7D1
:100C40008BFEA00502D46FF001002AE714F0240FF8
:100C50000AD0E00714D1DDE906123868031D3B60B5
:100C60000068C0E900120BE0DDE90601FFF784FB34
:100C70000146E00704D13868021D3A60006801604F
:100C800028460EE7000024400000F03FF1D8FFFFA7
:100C9000426842B1016811F8013B23B1521EC0E91C
:100CA0000012184670470121C160881E70474268D3
:100CB0005AB1C368016843B983688B4205D0491EA5
:100CC000521CC0E90012002070474FF0FF307047FF
:100CD00010B5141E73F1000408DA401C41F1000144
:100CE00092185B411A4301D120F0010010BD2DE99B
:100CF000F04D92469B4611B1B1FA81F202E0B0FA92
:100D000080F220329046FFF7F5FD04460F4640EA98
:100D10000A0041EA0B0153465A46084313D01146D4
:100D200053EA010019D0C8F140025046FFF7F1FD27
:100D300005460E46504659464246FFF7DBFD08433E
:100D400005D0012004E020463946BDE8F08D0020A2
:100D5000054346EAE0762C4337430A986305E40AE4
:100D6000A0EB08000022FD0A44EA47540A3002D5ED
:100D700000200146E9E7010510196941DDE9084550
:100D800000196941BDE8F04DA2E70EB540F23342CB
:100D900002920022CDE900221346FFF7A8FF03B01C
:100DA00000BD000070B506460D4614462F2C09D133
:100DB00000212846FFF7FCFA04D112A001F0A2FEA0
:100DC000002070BD2A2C10D02B2C04D02D2C07D045
:100DD0002F2C14D10EE029463046FFF7D9F9F0E761
:100DE00029463046FFF726FAEBE729463046FFF75B
:100DF00027FAE6E729463046FFF754FAE1E70020F4
:100E0000DFE700004572726F723A204469766973B9
:100E1000696F6E206279207A65726F210D0A000079
:100E200000BFFEE700200149087070471500002050
:100E30000020014908707047140000200EB5012100
:100E4000084601F083F90121022000F03FFD022055
:100E5000019000208DF8080008208DF8090001207D
:100E60008DF80A0001A800F07BFB07208DF8000038
:100E700002208DF801008DF8020001208DF803009A
:100E8000684600F037FF0221084600F01FFD0420ED
:100E9000019000208DF8080008208DF8090001203D
:100EA0008DF80A0001A800F05BFB08208DF8000017
:100EB00002208DF801008DF8020001208DF803005A
:100EC000684600F017FF0021084600F0FFFC0120F3
:100ED000019000208DF8080008208DF809000120FD
:100EE0008DF80A0001A800F03BFB06208DF80000F9
:100EF00002208DF801008DF8020001208DF803001A
:100F0000684600F0F7FE0EBD08B50121102001F083
:100F10001DF90121042001F019F90220ADF80000AB
:100F200048208DF8030069460B4800F0EFFC0420D0
:100F3000ADF8000048208DF803006946064800F02F
:100F4000E5FC0120ADF8000048208DF8030069465B
:100F5000024800F0DBFC08BD001001400008014021
:100F600008B50121102001F0F1F81020ADF80000C3
:100F700003208DF8020010208DF8030069460D480B
:100F800000F0C4FC012210210A4800F057FD202087
:100F9000ADF8000003208DF8020010208DF803004A
:100FA0006946044800F0B2FC00222021014800F00C
:100FB00045FD08BD0010014010B54FF4A06000F0E1
:100FC000D1FE10BD08B50121082001F0BFF80121B4
:100FD000102001F0BBF84FF40050ADF800001020D5
:100FE0008DF8030003208DF802006946294800F0BF
:100FF0008DFC4FF40051274800F01EFD4FF40040D7
:10100000ADF8000010208DF8030003208DF80200D9
:101010006946204800F07AFC4FF400411D4800F07A
:101020000BFD4FF48040ADF8000010208DF8030058
:1010300003208DF802006946164800F067FC4FF463
:101040008041144800F0F8FC4FF48050ADF80000E7
:1010500010208DF8030003208DF8020069460D482A
:1010600000F054FC4FF480510A4800F0E5FC0820E1
:10107000ADF8000010208DF8030003208DF8020069
:101080006946054800F042FC0821034800F0D4FC02
:1010900008BD0000000C01400010014010B5002107
:1010A000AE2000F069FF0021D52000F065FF00218F
:1010B000502000F061FF0021A82000F05DFF00211A
:1010C0003F2000F059FF0021D32000F055FF002100
:1010D000084600F051FF0021402000F04DFF0021A4
:1010E0008D2000F049FF0021142000F045FF002171
:1010F000202000F041FF0021022000F03DFF0021F0
:10110000A12000F039FF0021C02000F035FF0021B0
:10111000DA2000F031FF0021122000F02DFF002125
:10112000812000F029FF0021EF2000F025FF0021A1
:10113000D92000F021FF0021F12000F01DFF002147
:10114000DB2000F019FF0021302000F015FF002106
:10115000A42000F011FF0021A62000F00DFF0021C7
:10116000AF2000F009FF10BD10B500F0FFFF4FF4F5
:10117000803001F0BDF801F019F90446012C24D1AA
:10118000102000F089FB022000F094FB002001F009
:10119000A3F8002001F0DEF8A00201F0CFF84FF430
:1011A000E011200401F0E8F8012001F0DFF800BFB1
:1011B000392001F06BF80028FAD0022001F0EAF89B
:1011C00000BF01F081F80828FBD110BD7FB50546AE
:1011D0000C460121084600F0A9FFADF80850ADF813
:1011E00004400020ADF80A00ADF8060001A94FF058
:1011F000804001F0B5FA01221146900701F0A6FAED
:101200001C208DF8000000208DF8010003208DF8CF
:10121000020001208DF80300684600F06BFD0121FB
:10122000880701F076FA7FBD7FB505460C4601219F
:10123000082000F07BFFADF80850ADF80440002016
:10124000ADF80A00ADF8060001A90E4801F088FAD1
:10125000012211460B4801F079FA32208DF8000086
:1012600000208DF8010003208DF8020001208DF888
:101270000300684600F03EFD0121024801F049FAF2
:101280007FBD0000000C004010B586B0044601216F
:10129000880300F05BFF0121042000F057FF4FF4AA
:1012A0000070ADF8140018208DF8170003208DF899
:1012B000160005A9224800F029FB4FF48060ADF824
:1012C000140004208DF8170005A91D4800F01EFB2E
:1012D00001A801F0E4FB01940020ADF80800ADF88E
:1012E0000A00ADF80C000C20ADF80E000020ADF89F
:1012F000100001A9134801F05DFB25208DF80000C6
:1013000001208DF801008DF802008DF80300684679
:1013100000F0F0FC012240F225510A4801F025FBC3
:10132000012240F22771074801F01FFB0121054807
:1013300001F0D8FA00200449087006B010BD000082
:1013400000080140003801401A00002030B5034673
:10135000002016E0B3F900509C68645D0C541C88B2
:10136000641C24B21C80B3F90040B3F90450AC42B1
:1013700001DB00241C80441C20B2DC88641E24B2E3
:10138000DC80B3F90640002C01DD9042E2DB30BD89
:101390007047000001B504490098086000BF02488A
:1013A00000680028FBD108BD300000201CB50120DA
:1013B00000F0C2F800B311A103C9CDE9000100207B
:1013C00010490870104908606846FEF7DAFEC4B29A
:1013D0002146684601F07EFB00F0CEFC0BA21021F6
:1013E000002000F0A7FD0DA23021242000F0A2FD76
:1013F000012000F09BF800BF1CBD0000436C65613C
:10140000722100000000002004000020706C656163
:10141000736520696E707574000000004279204C7D
:101420007A7900007CB5022000F086F8002828D0E8
:1014300000201449144A12788854084600F00EF926
:1014400006463046FEF785FF10A2CDE900011021C7
:10145000114801F067FB3046FEF77BFF0FA2CDE994
:10146000000110210E4801F05DFB0B48FEF789FEDC
:10147000C4B22146084801F02DFB022000F056F8C6
:1014800000BF7CBD50000020000000205265737535
:101490006C743A2566000000700000203D2566004F
:1014A0008000002010B5042000F046F8002830D05D
:1014B0001848007810B118480078A0B917A2102178
:1014C000194801F02FFB1848FEF75BFEC4B2214615
:1014D000154801F0FFFA00F04FFC134A10210020DC
:1014E00000F028FD10E000F047FC202109480078BA
:1014F000401E094A11541021002000F01BFD0A4A29
:101500003021002000F016FD00F09AFC042000F0CD
:101510000DF810BD00000020500000206E6F206903
:101520006E707574000000008000002001490860A2
:101530007047000014040140014600200022074BC0
:101540001B6803EA0102054B14331B680B4013B1FF
:101550000AB1012000E000207047000000040140B3
:10156000002123498279002A3AD00A46126803688A
:101570009A430B461A600A1D126803689A430B1DB2
:101580001A60027911440A6803681A430A60184A0B
:101590000832126803689A43154B08331A601A1D03
:1015A000126803689A43124B0C331A604279102A6E
:1015B0000ED11A1F126803681A430D4B08331A60C4
:1015C0001A1D126803681A43094B0C331A600DE0A8
:1015D0000749427911440A6803681A430A6005E022
:1015E000027911440A6803689A430A607047000050
:1015F0000004014070B50346002016E00C5CB3F90E
:1016000002609D68AC555C88641C24B25C80B3F9B0
:101610000240B3F90450AC4201DB00245C80441C5E
:1016200020B2DC88641C24B2DC80B3F90640B3F934
:101630000450AC4201DA9042E0DB70BD10B50120ED
:1016400004490870012240F22771034801F08DF926
:1016500010BD00001A000020003801402DE9F047BD
:10166000CAB00546202226A948A800F08DFA2022FB
:1016700006A946A800F088FA0024DDE0FEF774FD14
:101680000068295D405C00F0010010B1601C04B2EC
:10169000D2E0FEF769FD0068295D405C202809D092
:1016A000285D2D2844D12CB1611E685C00F0DAFA67
:1016B00000283DD000200190029003900490002665
:1016C0008146285D2D2808D12046611C0CB22A5C79
:1016D0003046711C0EB201A90A540DE0285D2E2877
:1016E00001D14FF001092046611C0CB22A5C304642
:1016F000711C0EB201A90A54FEF736FD0068295D7F
:10170000405C2028EAD0B9F1000F02D1285D2E28D4
:10171000E4D0002001A9885501A801F0A8FE0746E1
:10172000FEF72AFE8246514648A800F0E5FC82E01A
:10173000285D28280AD1285DFEF7F2FD06463146CD
:1017400046A800F0D9FC601C04B274E0285D29288A
:1017500030D11AE004A946A800F068FC03A948A803
:1017600000F064FC02A948A800F060FC0498FEF7B1
:10177000DCFDC7B23A46DDE90201FFF713FB06467E
:10178000314648A800F0B8FC00BF46A800F032FF80
:1017900048B904A946A800F037FC20B13D49049897
:1017A000FEF706FED6D104A946A800F03FFC601C57
:1017B00004B240E0285D00F055FAE0B31AE004A955
:1017C00046A800F033FC03A948A800F02FFC02A9AA
:1017D00048A800F02BFC0498FEF7A7FDC7B23A46D4
:1017E000DDE90201FFF7DEFA0646314648A800F0BF
:1017F00083FC00BF46A800F0FDFE88B904A946A8F6
:1018000000F002FC60B10498FEF78FFDC6B23046CE
:1018100000F026F90746285D00F022F98742CEDA6B
:10182000285DFEF77DFD0646314646A800F064FCC3
:10183000601C04B200BF00BF285D00287FF41EAF0B
:101840001AE004A946A800F0F1FB03A948A800F09B
:10185000EDFB02A948A800F0E9FB0498FEF765FD3E
:10186000C7B23A46DDE90201FFF79CFA0646314667
:1018700048A800F041FC00BF46A800F0BBFE0028CD
:10188000DFD005A948A800F0D1FB05984AB0BDE813
:10189000F0870000000020420549096821F010018E
:1018A000034A116011460968014311607047000046
:1018B0000020024001460020034A106800F0380072
:1018C00008431060704700000020024030B500223D
:1018D0008B071C0F0F2303FA04F20B4B8C1053F8E9
:1018E00024309343084C8D1044F8253023468C1047
:1018F00053F824308C07240F00FA04F42343024CDD
:101900008D1044F8253030BD080001402DE9F0412C
:10191000024600250026002000230024002791F81D
:1019200003C00CF00F0591F803C00CF0100CBCF1D3
:10193000000F03D091F802C04CEA050591F800C0F1
:10194000BCF1000F31D0146800202BE04FF0010CE7
:101950000CFA00F3B1F800C00CEA03069E4220D155
:1019600083004FF00F0C0CFA03F7BC4305FA03FC9D
:101970004CEA040491F803C0BCF1280F06D14FF0E3
:10198000010C0CFA00FCC2F814C00AE091F803C084
:10199000BCF1480F05D14FF0010C0CFA00FCC2F865
:1019A00010C0401C0828D1D31460B1F800C0BCF1AD
:1019B000FF0F34DD546800202EE000F1080C4FF0DA
:1019C000010808FA0CF3B1F800C00CEA03069E42C5
:1019D00021D183004FF00F0C0CFA03F7BC4305FA3A
:1019E00003FC4CEA040491F803C0BCF1280F05D1B4
:1019F00000F1080C08FA0CF8C2F8148091F803C042
:101A0000BCF1480F07D100F1080C4FF0010808FAAB
:101A10000CF8C2F81080401C0828CED35460BDE8F2
:101A2000F08102460020D3680B400BB1012000E09A
:101A30000020704741617047016170470AB1016140
:101A400000E04161704700000148007870470000E5
:101A500015000020014800787047000014000020A5
:101A600001462B2901D02D2901D1012070472A29B7
:101A700001D02F2901D10220F8E70020F6E700006D
:101A8000014621B1012906D002290CD107E0074AFD
:101A9000B2F9000008E0064AB2F9000004E0054A85
:101AA000B2F9000000E000BF00BF70470A0000204C
:101AB0000C0000200E00002000BFFEE710B5FFF76D
:101AC00023FAFFF7BBF910BD10B500F0ADFD00F033
:101AD00045F800F013F84FF4E13000F09BF800F007
:101AE0008DF800F007F800F055F800F00BF8FFF75C
:101AF000E5FF10BD10B5FFF733FA10BD10B5FFF7C5
:101B00005BFA10BD10B5FFF75DFA4FF4804109484C
:101B1000FFF790FF0A20FFF73DFC4FF48041054896
:101B2000FFF78AFF0A20FFF735FCFFF7B7FA00F04E
:101B300023F910BD000C014030B50B460024048091
:101B400044808280C4808360002104E00024856892
:101B50006C544C1C21B29142F8DB30BD10B5FFF73C
:101B600003FB10BD00200349088003490880034996
:101B7000088070470A0000200C0000200E000020A2
:101B800010B5FFF7EFFF10BD4FF0FF330380428029
:101B90004160704730B5164800684FF47A72B0FB68
:101BA000F2F1B1F1807F01D301201DE021F07F40EF
:101BB000401E4FF0E022506150170F22002807DA34
:101BC00013071D0E0B4B00F00F04241F1D5503E0DF
:101BD00013071C0E084B1C5400BF00204FF0E022DE
:101BE000906107201061002008B100BFFEE730BD02
:101BF0003400002018ED00E000E400E010B54721BB
:101C000040F2E730FFF7E2FA472140F2E730FFF712
:101C10000BFB10BD10B5044600F004F82046FFF79A
:101C200033FB10BD10B5002406E00020094908551B
:101C300009490855601C04B2642CF6DB642205498E
:101C40000648FFF779FF642203490548FFF774FF50
:101C500010BD0000A80400200C0500209004002006
:101C60009C04002001462B2905D02D2903D02A29C8
:101C700001D02F2901D1012070470020FCE700008E
:101C800070B5044611480088401C10490880084679
:101C90000088A04219DB0020088010210C48FFF7C3
:101CA000C0FEC0F10100C5B22A4610210848FFF766
:101CB000C5FE20210648FFF7B4FEC0F10100C5B201
:101CC0002A4620210248FFF7B9FE70BD0800002017
:101CD0000010014000BFFEE77047000000F01F0247
:101CE00001219140024A430942F823107047000045
:101CF00080E200E070B5002100230F22C47804B315
:101D0000154C246804F4E064C4F5E064210AC1F1D0
:101D10000403CA40447804FA03F184781440214350
:101D200009010E4C0678A155047804F01F05012422
:101D3000AC4005786D11AD0005F1E025C5F8004116
:101D400009E0047804F01F050124AC40044D067836
:101D5000761145F8264070BD0CED00E000E400E08F
:101D600080E100E002490143024A1160704700002F
:101D70000000FA050CED00E070B500240CE0002531
:101D800006E00020074901EBC5010855681CC5B2F3
:101D9000802DF6DB601CC4B2082CF0DB00F050F89C
:101DA00070BD000090000020F8B504460D461746AF
:101DB0001E462B46224603A13046009700F0C6FE81
:101DC000F8BD000054696D653A253032643A25301B
:101DD00032643A2530326400F0B5144600267F287C
:101DE00001DC3F2900DDF0BD0B46CF1701EB577733
:101DF000FF10C7F10707FAB2CF1701EB5777FF10B3
:101E0000A1EBC707FDB2C5F107070123BB40DEB256
:101E10004CB10A4B03EBC0039B5C3343074F07EB0A
:101E2000C007BB5408E0054B03EBC0039B5CB34306
:101E3000024F07EBC007BB5400BFD4E7900000205F
:101E400070B500241CE004F1B001C8B2002100F01C
:101E500093F80021084600F08FF80021102000F0D0
:101E60008BF8002508E0084901EBC501085D012158
:101E700000F082F8681CC5B2802DF4DB601CC4B28F
:101E8000082CE0DB70BD0000900000202DE9F05F21
:101E900080460C4615461E46A346A5F12000C5B255
:101EA00000273EE00C2E07D105EB45001F4901EB52
:101EB000800010F8079004E01D4800EB051010F8B2
:101EC00007904FF0000A26E009F0800028B1214673
:101ED00040460A9AFFF780FF09E00A9808B90120F6
:101EE00000E00020024621464046FFF775FF4FEA1A
:101EF00049604FEA1069601CC4B2A4EB0B00B04209
:101F000005D15C4608F1010000F0FF0806E00AF187
:101F1000010000F0FF0ABAF1080FD5DB00BF781C02
:101F2000C7B2B742BEDBBDE8F09F0000A035000895
:101F3000143A0008F8B505460E46144618E07A2D06
:101F400003DD002506F11000C6B23A2E04DD0020A4
:101F500005460646FFF710FF012000902278102367
:101F600031462846FFF792FF05F10800C5B2641C10
:101F700020780028E3D1F8BD70B504460D4625B998
:101F800008211C48FFF756FD05E0012D03D108216B
:101F90001848FFF751FD4FF480511748FFF74AFDED
:101FA00000261BE04FF400511348FFF743FD04F0F7
:101FB000800028B14FF400410F48FFF73DFD04E0D9
:101FC0004FF400410C48FFF735FD4FF400510A482B
:101FD000FFF732FD6006040E701C06B2082EE1DB2E
:101FE0004FF480510448FFF727FD08210148FFF70F
:101FF00023FD70BD00100140000C01400149087034
:10200000704700001000002000B502460B46104645
:1020100000F0F0FA08B1002000BDB2F900105068DD
:1020200050F8210018600120F6E7704700B502461D
:102030000B46104600F0DEFA08B1002000BDB2F9F0
:10204000001088B2401E00B21080506850F8210085
:1020500018600120F2E7FEB5FFF7F6FCD0B10020D2
:10206000FFF70EFD06460120FFF70AFD0446022099
:10207000FFF706FD05466B462A4621463046FFF728
:1020800093FE6A4600211020FFF754FFFFF7D8FEA9
:10209000FEF7C8FEFEBD000008B5FFF7DBFC28B365
:1020A00000F0BCF9FA20FFF7EBFD17E09DF8000007
:1020B0000D2803D00E4800781F2805DB00200D49AD
:1020C0000B4A1278885409E09DF8001008480278FD
:1020D0000078401C064B1870064881540121684660
:1020E00000F08EF90028E1D1FEF7A2FE08BD000045
:1020F000000000205000002010B503460C46184692
:1021000000F081FA08B1002010BD1888401C00B210
:102110005968188041F820400120F5E70146C88839
:1021200008B9012070470020FCE7000029B1064AE9
:10213000D2690243044BDA6104E0034AD269824364
:10214000014BDA61704700000010024029B1064AD5
:1021500092690243044B9A6104E0034A9269824304
:10216000014B9A6170470000001002400F48006860
:1021700040F001000D490860084640680C490840DD
:102180000A494860084600680A490840074908604B
:102190000846006820F4802008600846406820F463
:1021A000FE0048604FF41F00886070470010024036
:1021B0000000FFF8FFFFF6FE30B5002100220024EA
:1021C00000232D4D6D6805F00C0121B1042905D0C7
:1021D000082923D105E0294D056022E0274D05603F
:1021E0001FE0254D6D6805F47012234D6D6805F4F0
:1021F0008034022505EB92421CB9214D5543056000
:102200000BE01D4D6D6805F400351DB11C4D5543A7
:10221000056002E0194D5543056002E0174D056069
:1022200000BF00BF144D6D6805F0F0010909154DA0
:102230006B5C0568DD4045600F4D6D6805F4E0613D
:10224000090A104D6B5C4568DD4085600A4D6D687C
:1022500005F46051C90A0B4D6B5C4568DD40C560F3
:10226000054D6D6805F44041890B074D6B5CC568F1
:10227000B5FBF3F5056130BD0010024000127A0095
:1022800000093D001B0000202B00002010B5014676
:102290000022002300204A11012A02D1094C2368A0
:1022A00006E0022A02D1074C236A01E0054C636A6A
:1022B00001F01F02012494401C400CB1012000E0F9
:1022C000002010BD001002400248406800F00C00E1
:1022D000704700000010024001460020034A506889
:1022E00020F0F000084350607047000000100240EA
:1022F0001149096821F480310F4A116011460968BB
:1023000021F480211160B0F5803F03D0B0F5802F1B
:102310000ED106E00849096841F48031064A11608F
:1023200007E00549096841F4A021034A116000E073
:1023300000BF00BF704700000010024001460020AF
:10234000034A506820F4E060084350607047000082
:102350000010024001460020034A506820F46050FB
:1023600040EAC10050607047001002400149086611
:10237000704700000000424202460020044B5868AB
:1023800020F47C1042EA01031843014B5860704767
:102390000010024001460020034A506820F003006C
:1023A00008435060704700000010024038B500201C
:1023B00000900024002500BF3120FFF767FF05468D
:1023C0000098401C00900098B0F5A06F01D0002D3F
:1023D000F2D03120FFF75AFF08B1012400E00024B9
:1023E000204638BD70B50446002501222146034829
:1023F000FEF7ACFFC5B2284670BD00009004002077
:1024000070B504460D4600262A4621460248FEF7CE
:102410009DFFC6B2304670BD9C0400202148B0F933
:10242000000040F2F311884234DB1F48007880BB83
:102430001E48B0F900003B2821DB1D48B0F9000020
:102440003B2812DB1B48B0F90000172803DB0020F3
:102450001849088005E017480088401C00B215495B
:10246000088000201249088005E011480088401CBF
:1024700000B20F49088000200C49088005E00B4895
:102480000088401C00B209490880002005490880E6
:1024900006E0FFE703480088401C00B201490880BD
:1024A0007047000012000020100000200E000020E5
:1024B0000C0000200A0000207047000010B5044600
:1024C000E1B2054800F0E7FA00BF4021024800F001
:1024D00015FA0028F9D010BD0038014010B500F001
:1024E00001F810BD0CB50020019000903348006841
:1024F00040F480303149086000BF3048006800F483
:10250000003000900198401C0190009818B9019883
:10251000B0F5A06FF1D12948006800F4003010B187
:102520000120009001E0002000900098012843D194
:102530002348006840F01000214908600846006800
:1025400020F0030008600846006840F002000860C0
:102550001A4840681949486008464068486008467B
:10256000406840F4806048600846406820F47C1071
:1025700048600846406840F4E81048600846006833
:1025800040F08070086000BF0C48006800F00070E8
:102590000028F9D00948406820F003000749486046
:1025A0000846406840F00200486000BF03484068A9
:1025B00000F00C000828F9D10CBD0000001002400A
:1025C0000020024020B1012805D0022809D105E0F1
:1025D000054A118006E0054A118003E0044A118093
:1025E00000E000BF00BF70470A0000200C00002080
:1025F0000E0000200146B1F90000401C08B901207E
:1026000070470020FCE70146B1F90020B1F9020053
:10261000401E824201D1012070470020FCE710B526
:1026200000F0F0F810BD000010B51348006840F04D
:1026300001001149086008464068104908400E49E9
:102640004860084600680E4908400B490860084683
:10265000006820F4802008600846406820F4FE00EE
:1026600048604FF41F008860FFF738FF4FF00060AC
:102670000449086010BD0000001002400000FFF88F
:10268000FFFFF6FE08ED00E010B50121880700F01D
:102690004CF8012803D10121800700F037F80748E2
:1026A0000088401C0549088008460088022804DB91
:1026B0000020088001200249087010BD160000208B
:1026C0001400002010B501210D4800F02EF801285B
:1026D00003D101210A4800F019F80A480088401C7B
:1026E00000B2084908800846B0F90000B0F57A7FCA
:1026F00004DB0020088001200349087010BD0000A1
:10270000000C00401800002015000020CA4302827F
:10271000704721B1028842F00102028004E0028881
:102720004FF6FE731A400280704730B50246002013
:1027300000230024158A05EA0103958905EA0104AE
:1027400013B10CB1012000E0002030BD1AB1838923
:102750000B43838102E083898B43838170470000B0
:10276000002202881D4B98420ED01D4B98420BD080
:10277000B0F1804F08D01B4B984205D01A4B9842BD
:1027800002D01A4B984204D14FF68F731A404B88EF
:102790001A43174B984207D0164B984204D04FF675
:1027A000FF431A40CB881A4302808B8883850B88AD
:1027B00003850A4B98420BD0094B984208D00E4B28
:1027C000984205D00D4B984202D00D4B984201D152
:1027D0000B7A03860123838270470000002C01409E
:1027E000003401400004004000080040000C00409C
:1027F000001000400014004000400140004401402F
:10280000004801400448006820B103480068401EA9
:1028100001490860704700003000002008B5002022
:10282000009040F22551204800F075F858B125205D
:10283000FFF754FA1C4800F029F9C0B200909DF847
:10284000000000F03BF90821174800F057F8012874
:1028500006D10821144800F02DF8134800F016F9AD
:1028600040F22771104800F056F8E0B140F22771AD
:102870000D4800F028F82520FFF730FA6846FFF7EA
:10288000B1FD9DF80010084800F005F90748FFF772
:1028900045FC40B1002006490870002240F2277133
:1028A000014800F062F808BD0038014090040020A3
:1028B0001A00002001F40072B2F5007F00D100BFC1
:1028C000CA430280704710B50022002340F66A1404
:1028D000A14200D100BF0A1201249440A3B2DC43FC
:1028E000048010BD21B1828942F40052828104E04B
:1028F00082894DF6FF731A4082817047024600209C
:10290000B1F5007F00D100BF13880B400BB101204F
:1029100000E00020704770B5024600240023002527
:10292000002040F66A16B14200D100BFC1F3421543
:1029300001F01F03012606FA03F3012D02D1968947
:10294000334006E0022D02D1168A334001E0968A18
:1029500033400C12012606FA04F41688344013B1F1
:102960000CB1012000E0002070BDF0B5034600244A
:1029700000260025002040F66A17B94200D100BFAA
:102980001846C1F3421401F01F06012707FA06F5A5
:10299000012C01D10C3004E0022C01D1103000E0F8
:1029A00014301AB107682F43076002E00768AF438D
:1029B0000760F0BD2DE9F04786B005460E460024BD
:1029C000A24600BFA1460027B08900B100BF2F4634
:1029D0002C8A4CF6FF700440F08804432C82AC89AA
:1029E0004EF6F3100440B0883189084371890843DA
:1029F0000443AC81AC8A4FF6FF400440B0890443E5
:102A0000AC8201A8FFF7D8FB1F48874202D1DDF84E
:102A100010A001E0DDF80CA0A88900F4004040B14E
:102A20000AEBCA0000EB0A1031684900B0FBF1F86C
:102A300007E00AEBCA0000EB0A1031688900B0FB1E
:102A4000F1F86420B8FBF0F004012009642101FBD7
:102A50001089A88900F4004040B1322000EBC90081
:102A6000B0FBF1F000F00700044308E0322000EB77
:102A700009106421B0FBF1F000F00F0004432C8139
:102A800006B0BDE8F08700000038014001468888A4
:102A9000C0F308007047C1F30802828070474FF40A
:102AA0001651016000218180C18001810C2141818A
:102AB00000218181704700BFFEE7000031B500248E
:102AC000012269460248FEF795FDC4B2204638BD92
:102AD0009C04002070B504460D4600262A46214677
:102AE0000648FEF787FDC6B2642E04DA0448007873
:102AF00008B9FEF7A3FD304670BD00009004002029
:102B00001A0000200FB4054B10B503A9044A02981F
:102B100000F006F910BC5DF814FB000099340008C1
:102B2000480000200FB41CB50A46521ECDE9000231
:102B300007A9054B6A46069800F0F2F8009A0021B2
:102B400011701CBC5DF814FB4F3400080FB4084B27
:102B500010B504A902AA039800F0E2F8044602A9FD
:102B6000002000F07FFC204610BC5DF814FB000044
:102B70006534000801480068704700004C000020E0
:102B800002E008C8121F08C1002AFAD17047704736
:102B9000002001E001C1121F002AFBD17047000094
:102BA00001490860704700004C0000202DE9FF5FDC
:102BB000DDE90220010DDDF838B0024318D044F6FB
:102BC0001050A1F2FF3141430D140F98012820D07D
:102BD000A5EB0B00401C5FEA000A4FF00004474ED3
:102BE000DFF81C91A046504616D5CAF1000728E030
:102BF0000F98012443A2012808D0002100980F9BC0
:102C0000C0E90021C0E90243BDE8FF9F6FEA0B0164
:102C1000F4E7CBF10000DEE7074612E0F80707D043
:102C20002246334640464946FDF740FD80468946E8
:102C30002246334610461946FDF738FD04460E4637
:102C40007F10002FEAD1DDE90201BAF1000F424600
:102C50004B4602DAFDF72AFD01E0FDF799FD044637
:102C60000E460022284BFDF71BFE03D84FF0FF3025
:102C7000014607E00022254B20463146FDF76FFC58
:102C8000FDF7F5FD102409E0002C0ADB0A220023E1
:102C9000FDF7AEFB019B30321A55641E50EA01026B
:102CA000F2D1641C019AC4F1110314440F9A012A51
:102CB00003D0012208430DD10AE0084304D00020CC
:102CC0004FF0110B0F9080E7A3EB0B056D1E0DE08D
:102CD0005B4504DD4FF0000205F1010504E003DA75
:102CE0004FF00002A5F10105002AECD000980F99E1
:102CF000C0E90231C0E9004586E700000000244039
:102D00000000F03F300000000000F0430000E03F12
:102D100030380A2801D20120704700207047000097
:102D20002DE9FF4F95B09B468946064600250FE2E8
:102D3000252877D100242746F84A0121059400E090
:102D4000044316F8013F203B01FA03F01042F7D18B
:102D500030782A2811D06FF02F033078A0F130029C
:102D6000092A16D8059A44F0020402EB820203EB0A
:102D700042021044761C0590EFE759F8042B0592A7
:102D8000002A03DA504244F40054059044F002044F
:102D9000761C30782E2816D116F8010F44F0040462
:102DA0002A280DD06FF02F023078A0F13003092BC4
:102DB00009D807EB870302EB4303C718761CF3E738
:102DC00059F8047B761C30786C280FD006DC4C2830
:102DD00017D068280DD06A2814D104E0742810D0C8
:102DE0007A280FD10DE044F400140AE044F4801472
:102DF00001E044F440147278824202D104F5801458
:102E0000761C761C307866280BD013DC582877D0D7
:102E100009DC002875D04528F6D04628F4D047288C
:102E20001AD19DE118E0632835D0642879D065284F
:102E300012D195E1702873D008DC6728F1D0692899
:102E40006FD06E280DD06F2806D1B5E073282CD036
:102E5000752875D0782874D05A46179990476D1CFC
:102E600075E1C4F30250022809D003280DD0D9F827
:102E7000001004280DD00D6009F1040967E1D9F8AC
:102E80000010EA17C1E90052F6E7D9F800100D80EA
:102E9000F2E70D70F0E719F8041B8DF80010002020
:102EA0008DF80100EA46012003E059F804AB4FF029
:102EB000FF3061074FF0000102D40DE008F101017D
:102EC0008846B9420FDA8045F8DB1AF80810002965
:102ED000F4D108E008F1010188468142FADB1AF8D2
:102EE00008100029F6D105985B46A0EB080721469B
:102EF0003846179A00F094FA284400EB080507E0DA
:102F00004DE029E10DE01AF8010B5A461799904758
:102F1000B8F10108F7D25B4621463846179A13E10B
:102F200042E00A220092C4F302524FF0000A022A41
:102F300008D059F804CB032A4FEAEC710AD00DE00F
:102F400029E02AE009F1070121F00702F2E802C1B5
:102F5000914609E00FFA8CFC4FEAEC71042A03D188
:102F60004FFA8CFC4FEAEC71002907DA0A4600217F
:102F7000DCF1000C61EB02012D2202E0220504D5F8
:102F80002B228DF80420012203E0E20701D0202249
:102F9000F7E7904659E00A2102E010220DE01021E7
:102FA0004FF0000A00910BE010224FF0000A44F0AD
:102FB00004040827009203E008224FF0000A009260
:102FC000C4F30252022A05D059F804CB0021032A87
:102FD00008D009E009F1070121F00702F2E802C177
:102FE000914605E01FFA8CFC042A01D10CF0FF0C7D
:102FF0004FF00008220728D5702806D0009B83F0E8
:10300000100353EA0A0305D00EE040228DF8042095
:10301000012208E05CEA010206D030228DF804208B
:103020008DF8050002229046009B83F0080353EAC6
:103030000A030AD15CEA010201D1620705D53022F8
:103040008DF804204FF001087F1E582804D034A0CA
:1030500003900EA802900DE036A0F9E753466046B3
:10306000009AFDF7C5F984460398825C0298401ED9
:10307000029002705CEA0100F0D1029806A9081AD9
:1030800000F1200A600702D524F4803400E0012713
:10309000574502DDA7EB0A0000E0002000EB0A0123
:1030A000009005984144401A0590E00306D45B4621
:1030B0002146179A059800F0B3F90544002706E069
:1030C00001A85A46C05D179990476D1C7F1C474563
:1030D000F6DBE0030CD55B462146179A059800F015
:1030E0009FF9054404E030205A46179990476D1C1B
:1030F0000099481E00900029F5DC08E0029802992A
:103100005A460078491C0291179990476D1CBAF1F4
:103110000001AAF1010AF1DC65E1000009280100C3
:10312000303132333435363738396162636465663D
:1031300000000000303132333435363738394142FF
:10314000434445460000000000F058F90544761C51
:10315000307800287FF4ECAD19B02846BDE8F08F38
:10316000620700D4062709F1070222F0070CFCE8E9
:103170000223E14603F000485FEA080C02D00FF298
:10318000702C0DE05FEA045C02D50FF2682C07E0BA
:103190005FEAC47C02D00FF2602C01E0AFF2700C49
:1031A0004FF0FF3823F00043CDF850C065280CD015
:1031B00006DC452809D046281DD047283DD13DE0F2
:1031C000662818D067287ED138E00021112F01DB56
:1031D000112000E0781CCDE9000106A90EA8FFF738
:1031E000E5FCDDE90F010E9A03910021009207F141
:1031F000010A04914DE04FF000400097CDE9011025
:1032000006A90EA8FFF7D2FCDDE90F0203920E9B80
:1032100011990022DDF80CA00093049211B9791CD9
:1032200000EB010AB7EB0A0004D4C0F1FF3007F14C
:10323000010A0490AAEB0700019044E0012F00DA94
:1032400001270021112F01DD112000E03846CDE9D2
:10325000000106A90EA8FFF7A9FCDDE90F010E9AEF
:103260000391002104910092BA4621070CD40399DE
:10327000514500DA8A46BAF1010F05DD009AAAF13C
:103280000101515C302908D0B84202DA10F1040F74
:1032900006DA0121CDE9011015E0AAF10101E9E703
:1032A000002805DC049901440491AAEB000102E026
:1032B000411C514500DD8A460499401A401C01908A
:1032C0004FF000400290200704D40198504501DBE4
:1032D000CDF8048000208DF84F0002980DF14F07C3
:1032E000B0F1004F25D02B200E9002984FF002082D
:1032F00000280CDA404202902D200E9007E00A21AF
:103300000298FDF75FF83031029007F8011DB8F11F
:103310000001A8F10108F2DC02980028EFD1791E23
:103320000E980870307800F0200040F0450007F853
:10333000020D12A8C01B00F107081498007800B114
:10334000012000EB0A01019801EBE071059841446E
:10335000401A401E0590E00306D45B462146179AAA
:10336000059800F05DF805441498007818B15A46A5
:10337000179990476D1CE00324D55B462146179AA8
:10338000059800F04DF805441CE00498002807DB80
:10339000DDE90301884203DD0098405C179901E0F4
:1033A000179930205A469047049805F10105401CB2
:1033B00004900198401E019004D12E205A4617997E
:1033C00090476D1CBAF10001AAF1010ADDDC05E0AD
:1033D00017F8010B5A46179990476D1CB8F1000178
:1033E000A8F10108F4DC5B462146179A0598ABE684
:1033F0002D0000002B000000200000002DE9F0410E
:10340000044600251E461746880404D405E03946C4
:103410002020B0476D1C641EF9D52846BDE8F08118
:103420002DE9F041044600251E469046C80301D50B
:10343000302700E02027880404D505E041463846BF
:10344000B0476D1C641EF9D52846BDE8F0814A6876
:10345000002A06D00A68531C0B6010704868401E92
:10346000486070470A68531C0B601070704730B595
:1034700083B00446FFF77EFB05460020CDE900003F
:10348000024621466846FDF700F82846FFF788FB0C
:10349000DDE9000103B030BD70B504460D46E0B271
:1034A000FFF70CF8204670BDFEF76AFBFEF70CFB39
:1034B00016A0FFF727FB1EA0FFF724FB22A0FFF7B3
:1034C00021FB27A0FFF71EFB29A0FFF71BFB002015
:1034D000FEF794FD00210846FFF774F80021012053
:1034E000FFF770F800210220FFF76CF826A21021E8
:1034F0000020FEF71FFD28A230212420FEF71AFD30
:1035000003E0FEF7C9FDFEF7A6FDFAE7496E697410
:103510002053797374656D20686173206265656EF0
:103520002066696E69736865642E0D0A00000000EC
:103530004B455931CEAABCC6CBE3B5B1C7B0CBE33E
:10354000CABD0D0A000000004B455932CEAACFD4A7
:10355000CABEBCC6CBE3BDE1B9FB0D0A000000004A
:103560004B455933CEAAC7E5C1E30D0A0000000060
:10357000C7EBB4D3B4AEBFDACAE4C8EBCBE3CABD81
:10358000A3BA0D0A00000000706C656173652069C4
:103590006E707574000000004279204C7A7900004A
:1035A000000000000000000000000000000000001B
:1035B0003F400000000000000000300040003000EC
:1035C0004000000009000BC03D000BC03D00090099
:1035D00018C024407FE0224031800000180024C041
:1035E0001B000D803240018003801C4027401C805E
:1035F00007400040100060000000000000000000D4
:103600000000000000001F802040402000004020FB
:1036100020401F8000000000090006001F800600F7
:1036200009000000040004003F80040004000000C2
:103630000010006000000000000000000400040012
:10364000040004000400000000000040000000002E
:1036500000000000002001C006003800400000000B
:103660001F802040204020401F80000000001040AC
:103670003FC000400000000018C02140224024400C
:103680001840000010802040244024401B8000008F
:1036900002000D0011003FC0014000003C802440AA
:1036A00024402440238000001F80244024403440D4
:1036B000038000003000200027C0380020000000F8
:1036C0001B802440244024401B8000001C0022C09A
:1036D000224022401F80000000000000084000003F
:1036E0000000000000000000046000000000000076
:1036F000000004000A001100208040400900090079
:10370000090009000900000000004040208011006D
:103710000A000400180020002340240018000000C4
:103720001F802040274029401F400000004007C064
:1037300039000F0001C0004020403FC02440244019
:103740001B8000001F80204020402040308000006F
:1037500020403FC0204020401F80000020403FC04C
:1037600024402E4030C0000020403FC024402E00A6
:10377000300000000F001080204022403380020003
:1037800020403FC0040004003FC0204020402040B3
:103790003FC02040204000000060202020203FC08B
:1037A0002000200020403FC024400B0030C02040BB
:1037B00020403FC020400040004000C03FC03C00CF
:1037C00003C03C003FC0000020403FC00C4023002D
:1037D0003FC020001F802040204020401F8000006C
:1037E00020403FC024402400180000001F802140DA
:1037F000214020E01FA0000020403FC024402600C0
:1038000019C0004018C024402440224031800000EC
:10381000300020403FC020403000000020003F80AA
:10382000004000403F80200020003E0001C0070013
:1038300038002000380007C03C0007C038000000F6
:10384000204039C0060039C0204000002000384028
:1038500007C0384020000000304021C026403840DA
:1038600020C00000000000007FE040204020000059
:10387000000070000C0003800040000000004020A9
:1038800040207FE0000000000000200040002000F9
:1038900000000000001000100010001000100010C8
:1038A0000000000040000000000000000000028056
:1038B0000540054003C0004020003FC004400440D4
:1038C0000380000000000380044004400640000024
:1038D00000000380044024403FC0004000000380FB
:1038E0000540054003400000000004401FC0244084
:1038F00024402000000002E005500550065004203E
:1039000020403FC00440040003C0004000000440C9
:1039100027C000400000000000100010041027E045
:103920000000000020403FC00140070004C00440E8
:10393000204020403FC000400040000007C004007D
:1039400007C0040003C00000044007C00440040096
:1039500003C00040000003800440044003800000D6
:10396000041007F0045004400380000000000380AE
:103970000440045007F00010044007C00240040057
:1039800004000000000006400540054004C000009F
:10399000000004001F800440004000000400078075
:1039A0000040044007C000400400070004C001803C
:1039B00006000400060001C0070001C00600000068
:1039C000044006C0010006C00440000004100710B7
:1039D00004E00180060004000000044005C0064029
:1039E000044000000000000004007BE040200000D4
:1039F000000000000000FFF0000000000000402078
:103A00007BE0040000000000400080004000200037
:103A10002000400000000000000000000000000046
:103A2000000000000000000000001FCC000C00009F
:103A300000000000000008003000600008003000B6
:103A400060000000022003FC1E20022003FC1E2058
:103A50000220000000000E1811043FFF10840C78B3
:103A6000000000000F0010840F3800C00778188491
:103A70000078000000780F8410C411240E9800E430
:103A800000840008080068007000000000000000CA
:103A90000000000000000000000007E018182004EB
:103AA00040020000000040022004181807E0000057
:103AB000000000000240024001800FF0018002403F
:103AC000024000000080008000800FF8008000802D
:103AD000008000000001000D000E0000000000004A
:103AE0000000000000000080008000800080008056
:103AF000008000800000000C000C000000000000AE
:103B000000000000000000060018006001800600B0
:103B100018002000000007F008081004100408082E
:103B200007F000000000080408041FFC0004000463
:103B30000000000000000E0C10141024104411842A
:103B40000E0C000000000C1810041104110412885F
:103B50000C700000000000E00320042408241FFC77
:103B60000024000000001F98108411041104108824
:103B700010700000000007F0088811041104188874
:103B80000070000000001C00100010FC13001C005E
:103B90001000000000000E381144108410841144FD
:103BA0000E38000000000700088C104410440888FC
:103BB00007F00000000000000000030C030C0000F0
:103BC00000000000000000000001010600000000ED
:103BD00000000000000000800140022004100808DE
:103BE00010040000022002200220022002200220F5
:103BF0000220000000001004080804100220014008
:103C00000080000000000E001200100C106C1080EC
:103C10000F00000003E00C1813E4142417C4082854
:103C200007D000000004003C03C41C40074000E42F
:103C3000001C000410041FFC1104110411040E8860
:103C40000070000003E00C181004100410041008A9
:103C50001C10000010041FFC1004100410040808BD
:103C600007F0000010041FFC1104110417C4100415
:103C70000818000010041FFC1104110017C01000E8
:103C80000800000003E00C181004100410441C7815
:103C90000040000010041FFC10840080008010848D
:103CA0001FFC10040000100410041FFC100410047A
:103CB0000000000000030001100110011FFE1000B1
:103CC0001000000010041FFC110403801464181C71
:103CD0001004000010041FFC100400040004000481
:103CE000000C000010041FFC1F0000FC1F001FFC44
:103CF0001004000010041FFC0C04030000E0101866
:103D00001FFC100007F00808100410041004080835
:103D100007F0000010041FFC108410801080108039
:103D20000F00000007F0081810241024101C080AC7
:103D300007F2000010041FFC1104110011C0113023
:103D40000E0C000400000E1C11041084108410449A
:103D50001C3800001800100010041FFC1004100094
:103D60001800000010001FF81004000400041004E4
:103D70001FF8100010001E0011E0001C00701380DE
:103D80001C0010001FC0103C00E01F0000E0103CB1
:103D90001FC000001004180C163401C001C01634F6
:103DA000180C100410001C00130400FC13041C0069
:103DB000100000000804101C1064108413041C047C
:103DC000101800000000000000007FFE40024002CA
:103DD00040020000000030000C0003800060001C66
:103DE0000003000000004002400240027FFE00008D
:103DF00000000000000000002000400040004000E3
:103E0000200000000001000100010001000100018C
:103E10000001000100004000400020000000000000
:103E20000000000000000098012401440144014406
:103E300000FC000410001FFC00880104010400883D
:103E400000700000000000700088010401040104FB
:103E500000880000000000700088010401041108BF
:103E60001FFC0004000000F8014401440144014427
:103E700000C800000000010401040FFC110411043B
:103E800011001800000000D601290129012901C9EB
:103E90000106000010041FFC008401000100010461
:103EA00000FC000400000104190419FC00040004D3
:103EB000000000000000000300010101190119FECB
:103EC0000000000010041FFC0024004001B4010C9D
:103ED000010400000000100410041FFC0004000492
:103EE00000000000010401FC0104010001FC0104C8
:103EF000010000FC010401FC008401000100010438
:103F000000FC0004000000F80104010401040104A5
:103F100000F80000010101FF008501040104008890
:103F20000070000000000070008801040104010519
:103F300001FF00010104010401FC008401040100EF
:103F400001800000000000CC012401240124012490
:103F50000198000000000100010007F801040104BD
:103F600000000000010001F8000400040004010842
:103F700001FC0004010001800170000C00100160D0
:103F80000180010001F0010C003001C00030010C83
:103F900001F0010000000104018C00740170018C2B
:103FA00001040000010101810171000E001801608F
:103FB0000180010000000184010C013401440184EE
:103FC000010C0000000000000000000001003EFCA9
:103FD000400240020000000000000000FFFF00005F
:103FE000000000000000400240023EFC0100000012
:103FF00000000000000060008000800040004000E1
:1040000020002000004040404040404040404141AE
:10401000414141404040404040404040404040409D
:104020004040404040050202020202020202020237
:104030000202020202202020202020202020200234
:1040400002020202020290909090909010101010C4
:104050001010101010101010101010101010101060
:1040600002020202020288888888888808080808F4
:1040700008080808080808080808080808080808C0
:10408000020202024000000005400008AC400008A7
:104090000000002050000000802B0008FC400008B9
:1040A0005000002020090000902B000800000000B4
:1040B0000000000000000000000000000000000000
:1040C00000000000000000000000000102030401E5
:1040D00002030406070809020406080000000000A5
:1040E00000A24A04000000000000000001020304D6
:0C40F000060708090000000000000000A6
:0400000508000131BD
:00000001FF
